{
  "contractName": "MedicalApp",
  "abi": [
    {
      "anonymous": false,
      "inputs": [
        {
          "indexed": false,
          "internalType": "bool",
          "name": "success",
          "type": "bool"
        },
        {
          "indexed": false,
          "internalType": "address",
          "name": "patient",
          "type": "address"
        },
        {
          "indexed": false,
          "internalType": "string",
          "name": "datetime",
          "type": "string"
        },
        {
          "indexed": false,
          "internalType": "string",
          "name": "info",
          "type": "string"
        }
      ],
      "name": "MedicalRecordCreated",
      "type": "event"
    },
    {
      "inputs": [
        {
          "internalType": "address",
          "name": "patient_address",
          "type": "address"
        }
      ],
      "name": "getMedical",
      "outputs": [
        {
          "components": [
            {
              "internalType": "string",
              "name": "datetime",
              "type": "string"
            },
            {
              "internalType": "string",
              "name": "info",
              "type": "string"
            }
          ],
          "internalType": "struct MedicalApp.MedicalRecord[]",
          "name": "",
          "type": "tuple[]"
        },
        {
          "internalType": "bool",
          "name": "",
          "type": "bool"
        }
      ],
      "stateMutability": "view",
      "type": "function",
      "constant": true
    },
    {
      "inputs": [
        {
          "internalType": "address",
          "name": "patient_address",
          "type": "address"
        },
        {
          "internalType": "string",
          "name": "datetime",
          "type": "string"
        },
        {
          "internalType": "string",
          "name": "info",
          "type": "string"
        }
      ],
      "name": "createMedicalRecord",
      "outputs": [
        {
          "internalType": "bool",
          "name": "",
          "type": "bool"
        }
      ],
      "stateMutability": "nonpayable",
      "type": "function"
    },
    {
      "inputs": [
        {
          "internalType": "address",
          "name": "doctor_address",
          "type": "address"
        }
      ],
      "name": "regDoctorPermit",
      "outputs": [
        {
          "internalType": "bool",
          "name": "",
          "type": "bool"
        }
      ],
      "stateMutability": "payable",
      "type": "function",
      "payable": true
    },
    {
      "inputs": [],
      "name": "showDoctorPermit",
      "outputs": [
        {
          "internalType": "address[]",
          "name": "",
          "type": "address[]"
        }
      ],
      "stateMutability": "view",
      "type": "function",
      "constant": true
    },
    {
      "inputs": [
        {
          "internalType": "address",
          "name": "doctor_address",
          "type": "address"
        }
      ],
      "name": "deleteDoctorPermit",
      "outputs": [
        {
          "internalType": "bool",
          "name": "",
          "type": "bool"
        },
        {
          "internalType": "string",
          "name": "",
          "type": "string"
        }
      ],
      "stateMutability": "payable",
      "type": "function",
      "payable": true
    }
  ],
  "bytecode": "0x608060405234801561000f575f80fd5b506114cc8061001d5f395ff3fe608060405260043610610049575f3560e01c806350d903611461004d578063a79d6f0814610089578063c616eeea146100b9578063c849241a146100ea578063ed823b8114610127575b5f80fd5b348015610058575f80fd5b50610073600480360381019061006e9190610cec565b610151565b6040516100809190610d8e565b60405180910390f35b6100a3600480360381019061009e9190610da7565b6103ad565b6040516100b09190610d8e565b60405180910390f35b6100d360048036038101906100ce9190610da7565b61057f565b6040516100e1929190610e4c565b60405180910390f35b3480156100f5575f80fd5b50610110600480360381019061010b9190610da7565b61078b565b60405161011e929190610fbe565b60405180910390f35b348015610132575f80fd5b5061013b610a7d565b60405161014891906110a3565b60405180910390f35b5f805f90505f5b5f808773ffffffffffffffffffffffffffffffffffffffff1673ffffffffffffffffffffffffffffffffffffffff1681526020019081526020015f2060010180549050811015610265573373ffffffffffffffffffffffffffffffffffffffff165f808873ffffffffffffffffffffffffffffffffffffffff1673ffffffffffffffffffffffffffffffffffffffff1681526020019081526020015f20600101828154811061020a576102096110c3565b5b905f5260205f20015f9054906101000a900473ffffffffffffffffffffffffffffffffffffffff1673ffffffffffffffffffffffffffffffffffffffff160361025257600191505b808061025d90611126565b915050610158565b506001151581151503610364575f60405180604001604052808681526020018581525090505f808773ffffffffffffffffffffffffffffffffffffffff1673ffffffffffffffffffffffffffffffffffffffff1681526020019081526020015f205f0181908060018154018082558091505060019003905f5260205f2090600202015f909190919091505f820151815f0190816103029190611367565b5060208201518160010190816103189190611367565b5050507fefb01d952629a23726f5be9cd8707ca05761a06a6a0c2631faa074ee903eb5d760018787876040516103519493929190611445565b60405180910390a16001925050506103a6565b7fefb01d952629a23726f5be9cd8707ca05761a06a6a0c2631faa074ee903eb5d75f8686866040516103999493929190611445565b60405180910390a15f9150505b9392505050565b5f805f90505f5b5f803373ffffffffffffffffffffffffffffffffffffffff1673ffffffffffffffffffffffffffffffffffffffff1681526020019081526020015f20600101805490508110156104c1578373ffffffffffffffffffffffffffffffffffffffff165f803373ffffffffffffffffffffffffffffffffffffffff1673ffffffffffffffffffffffffffffffffffffffff1681526020019081526020015f206001018281548110610466576104656110c3565b5b905f5260205f20015f9054906101000a900473ffffffffffffffffffffffffffffffffffffffff1673ffffffffffffffffffffffffffffffffffffffff16036104ae57600191505b80806104b990611126565b9150506103b4565b5060011515811515036104d7575f91505061057a565b5f803373ffffffffffffffffffffffffffffffffffffffff1673ffffffffffffffffffffffffffffffffffffffff1681526020019081526020015f2060010183908060018154018082558091505060019003905f5260205f20015f9091909190916101000a81548173ffffffffffffffffffffffffffffffffffffffff021916908373ffffffffffffffffffffffffffffffffffffffff16021790555060019150505b919050565b5f60605f5b5f803373ffffffffffffffffffffffffffffffffffffffff1673ffffffffffffffffffffffffffffffffffffffff1681526020019081526020015f2060010180549050811015610749578373ffffffffffffffffffffffffffffffffffffffff165f803373ffffffffffffffffffffffffffffffffffffffff1673ffffffffffffffffffffffffffffffffffffffff1681526020019081526020015f206001018281548110610636576106356110c3565b5b905f5260205f20015f9054906101000a900473ffffffffffffffffffffffffffffffffffffffff1673ffffffffffffffffffffffffffffffffffffffff1603610736575f803373ffffffffffffffffffffffffffffffffffffffff1673ffffffffffffffffffffffffffffffffffffffff1681526020019081526020015f2060010181815481106106ca576106c96110c3565b5b905f5260205f20015f6101000a81549073ffffffffffffffffffffffffffffffffffffffff021916905560016040518060400160405280601581526020017f54686520646f63746f722069732064656c6574656400000000000000000000008152509250925050610786565b808061074190611126565b915050610584565b505f6040518060400160405280601d81526020017f54686520646f63746f72206973206e6f7420696e20746865206c697374000000815250915091505b915091565b60605f805f90505f5b5f808673ffffffffffffffffffffffffffffffffffffffff1673ffffffffffffffffffffffffffffffffffffffff1681526020019081526020015f20600101805490508110156108a1573373ffffffffffffffffffffffffffffffffffffffff165f808773ffffffffffffffffffffffffffffffffffffffff1673ffffffffffffffffffffffffffffffffffffffff1681526020019081526020015f206001018281548110610846576108456110c3565b5b905f5260205f20015f9054906101000a900473ffffffffffffffffffffffffffffffffffffffff1673ffffffffffffffffffffffffffffffffffffffff160361088e57600191505b808061089990611126565b915050610794565b506001151581151503610a6d575f808573ffffffffffffffffffffffffffffffffffffffff1673ffffffffffffffffffffffffffffffffffffffff1681526020019081526020015f205f01600181805480602002602001604051908101604052809291908181526020015f905b82821015610a5d578382905f5260205f2090600202016040518060400160405290815f8201805461093e9061119a565b80601f016020809104026020016040519081016040528092919081815260200182805461096a9061119a565b80156109b55780601f1061098c576101008083540402835291602001916109b5565b820191905f5260205f20905b81548152906001019060200180831161099857829003601f168201915b505050505081526020016001820180546109ce9061119a565b80601f01602080910402602001604051908101604052809291908181526020018280546109fa9061119a565b8015610a455780601f10610a1c57610100808354040283529160200191610a45565b820191905f5260205f20905b815481529060010190602001808311610a2857829003601f168201915b5050505050815250508152602001906001019061090e565b5050505091509250925050610a78565b6060805f9350935050505b915091565b60605f803373ffffffffffffffffffffffffffffffffffffffff1673ffffffffffffffffffffffffffffffffffffffff1681526020019081526020015f20600101805480602002602001604051908101604052809291908181526020018280548015610b3b57602002820191905f5260205f20905b815f9054906101000a900473ffffffffffffffffffffffffffffffffffffffff1673ffffffffffffffffffffffffffffffffffffffff1681526020019060010190808311610af2575b5050505050905090565b5f604051905090565b5f80fd5b5f80fd5b5f73ffffffffffffffffffffffffffffffffffffffff82169050919050565b5f610b7f82610b56565b9050919050565b610b8f81610b75565b8114610b99575f80fd5b50565b5f81359050610baa81610b86565b92915050565b5f80fd5b5f80fd5b5f601f19601f8301169050919050565b7f4e487b71000000000000000000000000000000000000000000000000000000005f52604160045260245ffd5b610bfe82610bb8565b810181811067ffffffffffffffff82111715610c1d57610c1c610bc8565b5b80604052505050565b5f610c2f610b45565b9050610c3b8282610bf5565b919050565b5f67ffffffffffffffff821115610c5a57610c59610bc8565b5b610c6382610bb8565b9050602081019050919050565b828183375f83830152505050565b5f610c90610c8b84610c40565b610c26565b905082815260208101848484011115610cac57610cab610bb4565b5b610cb7848285610c70565b509392505050565b5f82601f830112610cd357610cd2610bb0565b5b8135610ce3848260208601610c7e565b91505092915050565b5f805f60608486031215610d0357610d02610b4e565b5b5f610d1086828701610b9c565b935050602084013567ffffffffffffffff811115610d3157610d30610b52565b5b610d3d86828701610cbf565b925050604084013567ffffffffffffffff811115610d5e57610d5d610b52565b5b610d6a86828701610cbf565b9150509250925092565b5f8115159050919050565b610d8881610d74565b82525050565b5f602082019050610da15f830184610d7f565b92915050565b5f60208284031215610dbc57610dbb610b4e565b5b5f610dc984828501610b9c565b91505092915050565b5f81519050919050565b5f82825260208201905092915050565b5f5b83811015610e09578082015181840152602081019050610dee565b5f8484015250505050565b5f610e1e82610dd2565b610e288185610ddc565b9350610e38818560208601610dec565b610e4181610bb8565b840191505092915050565b5f604082019050610e5f5f830185610d7f565b8181036020830152610e718184610e14565b90509392505050565b5f81519050919050565b5f82825260208201905092915050565b5f819050602082019050919050565b5f82825260208201905092915050565b5f610ebd82610dd2565b610ec78185610ea3565b9350610ed7818560208601610dec565b610ee081610bb8565b840191505092915050565b5f604083015f8301518482035f860152610f058282610eb3565b91505060208301518482036020860152610f1f8282610eb3565b9150508091505092915050565b5f610f378383610eeb565b905092915050565b5f602082019050919050565b5f610f5582610e7a565b610f5f8185610e84565b935083602082028501610f7185610e94565b805f5b85811015610fac5784840389528151610f8d8582610f2c565b9450610f9883610f3f565b925060208a01995050600181019050610f74565b50829750879550505050505092915050565b5f6040820190508181035f830152610fd68185610f4b565b9050610fe56020830184610d7f565b9392505050565b5f81519050919050565b5f82825260208201905092915050565b5f819050602082019050919050565b61101e81610b75565b82525050565b5f61102f8383611015565b60208301905092915050565b5f602082019050919050565b5f61105182610fec565b61105b8185610ff6565b935061106683611006565b805f5b8381101561109657815161107d8882611024565b97506110888361103b565b925050600181019050611069565b5085935050505092915050565b5f6020820190508181035f8301526110bb8184611047565b905092915050565b7f4e487b71000000000000000000000000000000000000000000000000000000005f52603260045260245ffd5b7f4e487b71000000000000000000000000000000000000000000000000000000005f52601160045260245ffd5b5f819050919050565b5f6111308261111d565b91507fffffffffffffffffffffffffffffffffffffffffffffffffffffffffffffffff8203611162576111616110f0565b5b600182019050919050565b7f4e487b71000000000000000000000000000000000000000000000000000000005f52602260045260245ffd5b5f60028204905060018216806111b157607f821691505b6020821081036111c4576111c361116d565b5b50919050565b5f819050815f5260205f209050919050565b5f6020601f8301049050919050565b5f82821b905092915050565b5f600883026112267fffffffffffffffffffffffffffffffffffffffffffffffffffffffffffffffff826111eb565b61123086836111eb565b95508019841693508086168417925050509392505050565b5f819050919050565b5f61126b6112666112618461111d565b611248565b61111d565b9050919050565b5f819050919050565b61128483611251565b61129861129082611272565b8484546111f7565b825550505050565b5f90565b6112ac6112a0565b6112b781848461127b565b505050565b5b818110156112da576112cf5f826112a4565b6001810190506112bd565b5050565b601f82111561131f576112f0816111ca565b6112f9846111dc565b81016020851015611308578190505b61131c611314856111dc565b8301826112bc565b50505b505050565b5f82821c905092915050565b5f61133f5f1984600802611324565b1980831691505092915050565b5f6113578383611330565b9150826002028217905092915050565b61137082610dd2565b67ffffffffffffffff81111561138957611388610bc8565b5b611393825461119a565b61139e8282856112de565b5f60209050601f8311600181146113cf575f84156113bd578287015190505b6113c7858261134c565b86555061142e565b601f1984166113dd866111ca565b5f5b82811015611404578489015182556001820191506020850194506020810190506113df565b86831015611421578489015161141d601f891682611330565b8355505b6001600288020188555050505b505050505050565b61143f81610b75565b82525050565b5f6080820190506114585f830187610d7f565b6114656020830186611436565b81810360408301526114778185610e14565b9050818103606083015261148b8184610e14565b90509594505050505056fea264697066735822122044f6fcab10df11883d5f9cd4610fc2045f8c5409e45a69904d77039c4b08da6b64736f6c63430008150033",
  "immutableReferences": {},
  "source": "// SPDX-License-Identifier: MIT\npragma solidity ^0.8.15;\n\ncontract MedicalApp {\n    //structs\n    struct Patients {\n        MedicalRecord[] medicalRecords;\n        address[] DoctorPermit;\n    }\n\n    struct MedicalRecord{\n        string datetime;\n        string info;\n    }\n\n    // mapping\n    mapping (address => Patients) patients;\n\n    // modifier\n    address manager;\n    modifier restricted() {\n        require(msg.sender == manager);\n        _;\n    }\n\n    // Doctor functions\n    function getMedical(address patient_address) public view returns (MedicalRecord[] memory, bool){\n        bool isCheck = false;\n        for(uint i = 0; i< patients[patient_address].DoctorPermit.length; i++){\n            if(patients[patient_address].DoctorPermit[i] == msg.sender){\n                isCheck = true;\n            }\n        }\n        if(isCheck == true){\n            return (patients[patient_address].medicalRecords ,true);\n        }else{\n            MedicalRecord[] memory empty;\n            return (empty, false);\n        }\n    }\n\n    event MedicalRecordCreated(bool success, address patient, string datetime, string info);\n    \n    function createMedicalRecord(address patient_address, string memory datetime, string memory info) public returns (bool){\n        bool isCheck = false;\n        for(uint i = 0; i< patients[patient_address].DoctorPermit.length; i++){\n            if(patients[patient_address].DoctorPermit[i] == msg.sender){\n                isCheck = true;\n            }\n        }\n        if(isCheck == true){\n            MedicalRecord memory newMedicalRecord = MedicalRecord(datetime, info);\n            patients[patient_address].medicalRecords.push(newMedicalRecord);\n            emit MedicalRecordCreated(true, patient_address, datetime, info);\n            return true;\n        }else{\n            emit MedicalRecordCreated(false, patient_address, datetime, info);\n            return false;\n        }\n    }\n\n    // Nurse functions\n    function regDoctorPermit(address doctor_address) public payable returns (bool){\n        bool isCheck = false;\n        for(uint i = 0; i< patients[msg.sender].DoctorPermit.length; i++){\n            if(patients[msg.sender].DoctorPermit[i] == doctor_address){\n                isCheck = true;\n            }\n        }\n        if (isCheck == true){\n            return false;\n        }else{\n            patients[msg.sender].DoctorPermit.push(doctor_address);\n            return true;\n        }\n    }\n\n    function showDoctorPermit() public view returns (address[] memory){\n        return patients[msg.sender].DoctorPermit;\n    }\n\n\n    function deleteDoctorPermit(address doctor_address) public payable returns (bool, string memory){\n            for(uint i = 0; i< patients[msg.sender].DoctorPermit.length; i++){\n                // if the doctor is in the list\n                if(patients[msg.sender].DoctorPermit[i] == doctor_address){\n                    delete patients[msg.sender].DoctorPermit[i];\n                    return (true, \"The doctor is deleted\");\n                }\n            }\n            return (false, \"The doctor is not in the list\");\n    }\n\n}\n",
  "sourcePath": "/Users/tungyuenlok/Desktop/csci2730-project-smart_contract/contracts/MedicalApp.sol",
  "compiler": {
    "name": "solc",
    "version": "0.8.21+commit.d9974bed.Emscripten.clang"
  },
  "schemaVersion": "3.4.16",
  "updatedAt": "2023-12-09T14:55:27.168Z",
  "networkType": "ethereum",
  "devdoc": {
    "kind": "dev",
    "methods": {},
    "version": 1
  },
  "userdoc": {
    "kind": "user",
    "methods": {},
    "version": 1
  }
}